:100000000C94AC130C94D6130C94D6130C94D613F6
:100010000C94D6130C94D6130C94D6130C94D613BC
:100020000C94D6130C94D6130C94D6130C94D613AC
:100030000C94D6130C9451770C94D6130C94D613BD
:100040000C94D6130C94A6D80C94315B0C94D61354
:100050000C944E440C94D6130C94D6130C94D613D3
:100060000C94D6130C94D6130C94D6130C94D6136C
:100070000C94D6130C94D6130C94D6130C94D6135C
:100080000C94D6130C94D6130C94D613A05AA55ADC
:10009000AA5AB45AE25AE25ABE5AC65ACE5AD85A44
:1000A000B680B980AC80B080D080D080BD80C18067
:1000B000C780CB80084AD73B3BCE016E84BCBFFDD6
:1000C000C12F3D6C74319ABD56833DDA3D00C77F28
:1000D00011BED9E4BB4C3E916BAAAABE00000080C1
:1000E0003F05A84CCDB2D44EB93836A9020C50B950
:1000F000918688083CA6AAAA2ABE000000803F007C
:100100004E414E494E495459494E46CDCCCC3D0AFC
:10011000D7233C17B7D13877CC2B329595E6241FDF
:10012000B14F0A000020410000C84200401C462098
:10013000BCBE4CCA1B0E5AAEC59D74434F4D4D55A7
:100140004E49434154494F4E0044525952554E0076
:100150004552524F525300494E464F004543484F77
:100160000047322F47332062616420706172616DF5
:1001700065746572730A00536C6565702E2E2E00CF
:10018000486F6D652058592066697273740A00487B
:100190006F6D65205859206669727374004D6573E0
:1001A0006820706F696E742063616E6E6F74206278
:1001B00065207265736F6C7665640A00436C6963D1
:1001C0006B20746F20726573756D652E2E2E004E38
:1001D0006F206D6F76652E00456E642066696C65D4
:1001E000206C6973740A00426567696E2066696CE9
:1001F00065206C6973740A00286E6F2066696C65EF
:1002000029005344207072696E74696E67206279A8
:10021000746520004E6F74205344207072696E74B0
:10022000696E670A0043757272656E742066696C48
:10023000653A200046696C652064656C6574656488
:100240003A0044656C6574696F6E206661696C651F
:10025000642C2046696C653A20005072696E7420E7
:1002600074696D653A20005C015701500149013BFA
:10027000016F66660044454255473A004B494C4C75
:1002800045442E20004D3131332053006F6B003335
:1002900044205072696E746572204F66662E002C81
:1002A00020002C2000544845524D414C5F50524F85
:1002B00054454354494F4E004155544F5245504FB9
:1002C00052545F53445F53544154555300454D4578
:1002D0005247454E43595F504152534552004341A6
:1002E00053455F4C494748545F4252494748544E32
:1002F00045535300544F47474C455F4C494748547A
:100300005300534F4654574152455F504F57455243
:10031000004255494C445F50455243454E54004CB1
:100320004556454C494E475F44415441005A5F5041
:10033000524F4245004155544F4C4556454C005094
:1003400052494E545F4A4F420050524F4752455314
:1003500053004155544F5245504F52545F54454DF0
:100360005000564F4C554D45545249430045455059
:10037000524F4D0053455249414C5F584F4E5F58C4
:100380004F4646004649524D574152455F4E414DFA
:10039000453A4D61726C696E20312E312E3920281C
:1003A0004769746875622920534F555243455F432E
:1003B0004F44455F55524C3A68747470733A2F2F0E
:1003C0006769746875622E636F6D2F4D61726C6919
:1003D0006E4669726D776172652F4D61726C696EE0
:1003E0002050524F544F434F4C5F56455253494F44
:1003F0004E3A312E30204D414348494E455F5459C5
:1004000050453A3344205072696E746572204558E5
:100410005452554445525F434F554E543A3120553E
:100420005549443A63656465326132662D34316101
:10043000322D343734382D396231322D63353563FE
:1004400036326633363766660A002F2F20004D316C
:10045000343520533C696E6465783E206F75742096
:100460006F662072616E67652028302D31290A0081
:10047000205400205200416363656C6572617469A9
:100480006F6E3A2050005741524E494E4721204C42
:100490006F77205A204A65726B206D6179206C65F8
:1004A000616420746F20756E77616E74656420706E
:1004B00061757365732E0A004F66667365747320E9
:1004C0006170706C696564004572723A20546F6F98
:1004D000206661722100546F6F206661722066721F
:1004E0006F6D207265666572656E636520706F69F9
:1004F0006E740A0020466C6F773A200000010F15D9
:100500000E12FFFFFFFF16170E13FFFFFFFF030280
:100510001A14FFFFFFFFFFFFFF0C04FFFFFF0100A6
:100520000EFFFFFF0C190DFF1820643A0020693AF6
:100530000020703A00496E76616C696420657874B9
:1005400072756465720A0043290A0061626C656411
:1005500020286D696E2074656D702000436F6C6497
:100560002065787472756465732061726520004E31
:100570006F2063617365206C696768740A004D655C
:10058000736820706F696E742063616E6E6F742083
:100590006265207265736F6C7665640A004D343253
:1005A0003120696E636F727265637420706172616D
:1005B0006D657465722075736167650A0045455005
:1005C000524F4D204F4B0A00536B657720466163B5
:1005D000746F722058593A20006D696E5F736B65B5
:1005E000775F666163746F723A20202D31206D61F0
:1005F000785F736B65775F666163746F723A202012
:10060000310A0041637469766520457874727564B7
:1006100065723A2000496E76616C69642065787471
:1006200072756465720A0020746F6F206C6F6E675C
:1006300020657874727573696F6E20707265766567
:100640006E7465640A0020636F6C64206578747250
:100650007573696F6E2070726576656E7465640A75
:10066000002569730025696D202569730025696877
:100670002025696D20256973002569642025696836
:100680002025696D20256973002569792025696415
:10069000202569682025696D20256973004B494C28
:1006A0004C45442E200053544F505045442E2000BA
:1006B0005072696E7465722073746F707065642017
:1006C00064756520746F206572726F72732E204698
:1006D000697820746865206572726F7220616E643B
:1006E00020757365204D39393920746F2072657318
:1006F000746172742E202854656D70657261747512
:1007000072652069732072657365742E2053657459
:1007100020697420616674657220726573746172F9
:1007200074696E67290A004E6F20436865636B73B6
:10073000756D2077697468206C696E65206E756DC3
:100740006265722C204C617374204C696E653A208E
:10075000004E6F20436865636B73756D2077697415
:1007600068206C696E65206E756D6265722C204C18
:10077000617374204C696E653A2000636865636B31
:1007800073756D206D69736D617463682C204C61A5
:100790007374204C696E653A20004C696E65204E7A
:1007A000756D626572206973206E6F74204C617381
:1007B00074204C696E65204E756D6265722B312C0C
:1007C000204C617374204C696E653A20004D3131C4
:1007D00030004D33310053442072656164206572EE
:1007E000726F720A00446F6E65207072696E746970
:1007F0006E672066696C650A0020496E76616C69D7
:10080000642065787472756465722000000040C1D0
:10081000000000C1000000000000544300005043ED
:10082000000048436F6B0020746F6F206C6F6E6721
:1008300020657874727573696F6E20707265766565
:100840006E7465640A0020636F6C6420657874724E
:100850007573696F6E2070726576656E7465640A73
:1008600000627573793A2070617573656420666FF4
:100870007220696E7075740A00627573793A20701F
:10088000617573656420666F7220757365720A0006
:10089000627573793A2070726F63657373696E67FE
:1008A0000A004B494C4C45442E20004B494C4C20EF
:1008B00063617573656420627920746F6F206D7554
:1008C000636820696E6163746976652074696D651B
:1008D000202D2063757272656E7420636F6D6D617B
:1008E0006E643A2000506C656173652072657365B3
:1008F00074005052494E5445522048414C5445448E
:10090000005072696E7465722068616C7465642E43
:10091000206B696C6C28292063616C6C6564210A0A
:1009200000656E7175657565696E6720220000004F
:1009300040C1000000C1000000005761726E696E86
:10094000673A20486F6D696E672042756D7020446C
:10095000697669736F72203C20310A00020204003C
:1009600000A0400000A040000000400000604300E4
:1009700000584300004843FFFFFF42696C696E6501
:100980006172204C6576656C696E67204772696498
:100990003A0A00486F6D696E67206661696C65642C
:1009A00000477269642070726F62696E6720646FBD
:1009B0006E652E0A00206F662000706F696E7420CD
:1009C0000069646C650A004D616E75616C20473288
:1009D0003920004D616E75616C20473239206162AB
:1009E0006F727465640A00202844525952554E298A
:1009F00000473239204175746F20426564204C6590
:100A000076656C696E67003F20284C2C522C462C72
:100A10004229206F7574206F6620626F756E647353
:100A20002E0A003F2856296572626F7365206C6537
:100A300076656C20697320696D706C61757369628D
:100A40006C652028302D34292E0A00426164205A1A
:100A50002076616C75650A004E6F2062696C696E64
:100A600065617220677269640A0050726F74656311
:100A70007465642050696E0A0046696C616D656E2C
:100A80007420757365643A200053746174733A205E
:100A9000002C204C6F6E67657374206A6F623A2079
:100AA00000546F74616C2074696D653A2000537452
:100AB0006174733A20002C204661696C65643A20A9
:100AC000002C2046696E69736865643A2000507294
:100AD000696E74733A200053746174733A20000095
:100AE000000000010204040000001C1C0C040404AB
:100AF0000201000000000004081000000000002DAA
:100B00002D2D2D2D2D007C4D61726C696E7C002D7C
:100B10002D2D2D2D2D00687474703A2F2F6D61725C
:100B20006C696E66772E6F726700687474703A2F06
:100B30002F6D61726C696E66772E6F72670020315F
:100B40002E312E39002020506C616E6E6572427518
:100B50006666657242797465733A20002046726554
:100B600065204D656D6F72793A2000436F6D706935
:100B70006C65643A204A616E20323020323031395F
:100B80000A00207C20417574686F723A2028313148
:100B900033382D3445422C2047656565746563689C
:100BA0002050727573612069332050726F2042208B
:100BB000636F6E666967290A00323031382D30382C
:100BC0002D303100204C6173742055706461746560
:100BD000643A2000312E312E390A004D61726C6961
:100BE0006E0020536F66747761726520526573657D
:100BF000740A00205761746368646F6720526573DC
:100C000065740A002042726F776E206F75742052EF
:100C1000657365740A002045787465726E616C2096
:100C200052657365740A00506F77657255700A00DB
:100C300073746172740A006175746F25692E6700A0
:100C40006572726F722077726974696E6720746F53
:100C50002066696C650A00456E6473746F7073205A
:100C6000256320256320256320256300205A3A0050
:100C700020593A0020583A00656E6473746F70739F
:100C8000206869743A2000446F6E6520736176694C
:100C90006E672066696C652E0A004D3239004D6F13
:100CA0007665205A00473239205631004E657874F7
:100CB00020506F696E74002569202F20257500472C
:100CC000323920563100436C69636B20746F2042C7
:100CD0006567696E00486F6D696E672058595A00E4
:100CE0004732380053746F72652073657474696E8F
:100CF0006773004C6F61642073657474696E677309
:100D0000004C6576656C20636F726E657273004689
:100D100061646520486569676874004661646520A0
:100D2000486569676874004661646520486569675D
:100D30006874004F6666004F6E2000426564204C68
:100D40006576656C696E67004C6576656C206265DA
:100D5000640050726570617265004D343238005025
:100D600072656865617420504C4100436F6F6C641C
:100D70006F776E0050726568656174204142530060
:100D800044697361626C6520737465707065727319
:100D9000004D38340053657420686F6D65206F66B0
:100DA000667365747300426564204C6576656C6992
:100DB0006E6700486F6D65205A00473238205A0030
:100DC000486F6D65205900473238205900486F6DD3
:100DD000652058004732382058004175746F2068EC
:100DE0006F6D6500473238004D6F76652061786918
:100DF00073004D61696E004D6F76652058004D6F30
:100E000076652059004D6F7665205A0045787472DA
:100E100075646572004D6F766520302E316D6D0002
:100E20004D6F766520316D6D004D6F7665203130E8
:100E30006D6D004D6F76652061786973004578743B
:100E40007275646572004D6F7665205A004D6F763D
:100E5000652059004D6F7665205800577269746996
:100E60006E6720746F2066696C653A20006F70654C
:100E70006E206661696C65642C2046696C653A2059
:100E8000006F70656E206661696C65642C20466930
:100E90006C653A200046696C652073656C65637407
:100EA00065640A002053697A653A200046696C65DA
:100EB000206F70656E65643A20002066696C653A43
:100EC0002000646F696E67006672657368004E6F1C
:100ED000772000454E4420535542524F5554494EB9
:100EE000450A002220706F73002220706172656EC7
:100EF000743A2200535542524F5554494E452043AF
:100F0000414C4C207461726765743A22004B494C25
:100F10004C45442E2000747279696E6720746F20EE
:100F200063616C6C207375622D67636F6465206606
:100F3000696C6573207769746820746F6F206D61C8
:100F40006E79206C6576656C732E204D4158206C4F
:100F50006576656C2069733A004572726F723A006B
:100F60006F70656E206661696C65642C2046696CE3
:100F7000653A200043616E6E6F74206F70656E205D
:100F800073756264697220006563686F3A00001CC3
:100F90001F11111F00000006191803130C00040E86
:100FA0001F041C000000000E1315110E00001C1081
:100FB000181705060500040A0A0A0A11110E0C1278
:100FC000120C00000000001F1511151F000024F472
:100FD000D43050C38E20C2A24017828B7011127A77
:100FE000910D816CD90AA861E108C7586607615163
:100FF00043061E4B5D05C145A7041A411104093D76
:101000009803713931034036DB0265339102D430E5
:101010005402802E1D02632CEE01752AC501B028F2
:10102000A001102781018F2564012B244B01E022B0
:101030003401AC211F018D200D01801FFC00841E96
:10104000ED00971DDF00B81CD200E61BC600201B78
:10105000BC00641AB200B219A8000A19A0006A18EC
:101060009900D117910040178B00B51684003116F6
:101070007E00B31579003A157300C7146F00581439
:101080006A00EE1366008813630025135E00C71222
:101090005B006C12570015125400C1115100701101
:1010A0004F0021114B00D61049008D10470046100B
:1010B000440002104200C00F4000800F3E00420F6B
:1010C0003C00060F3B00CB0E3800930E37005C0E41
:1010D0003500270E3400F30D3200C10D3100900DA4
:1010E0003000600D2E00320D2D00050D2C00D90CA6
:1010F0002B00AE0C2900850C29005C0C2700350C58
:1011000027000E0C2600E80B2400C40B2400A00BC3
:1011100023007D0B23005A0B2100390B2100180BF3
:101120002000F80A1F00D90A1E00BB0A1E009D0AF3
:101130001D00800A1D00630A1C00470A1B002C0AC0
:101140001B00110A1A00F7091A00DD091900C40969
:101150001900AB091900920917007B0918006309EF
:1011600017004C09160036091600200916000A0956
:101170001500F5081500E0081400CC081400B808A4
:101180001400A4081400900813007D0812006B08D6
:1011900013005808120046081200340811002308F2
:1011A00011001208110001081100F0071000E007FB
:1011B0001000D0071000C0071000B0070F00A107F3
:1011C000100091070E0083070F0074070F006507DA
:1011D0000E0057070E0049070E003B070D002E07B3
:1011E0000E0020070D0013070D0006070D00F9067D
:1011F0000C00ED060D00E0060C00D4060C00C8063D
:101200000C00BC060C00B0060C00A4060B009906EE
:101210000C008D060B0082060B0077060B006C0697
:101220000B0061060A0057060B004C060A00420636
:101230000A0038060A002E060A0024060A001A06CA
:101240000A001006090007060A00FD050900F4055A
:101250000900EB050900E2050900D9050900D005E0
:101260000900C7050900BE050900B5050800AD0560
:101270000800A50509009C050800940508008C05D8
:101280000800840508007C050800740508006C054A
:101290000700650508005D050700560508004E05B6
:1012A000070047050700400508003805070031051D
:1012B00007002A050700230507001C050600160580
:1012C00007000F0507000805060002050700FB04DC
:1012D0000600F5040700EE040600E8040600E20438
:1012E0000700DB040600D5040600CF040600C9048D
:1012F0000600C3040600BD040600B7040600B104DE
:101300000500AC040600A6040600A00405009B042A
:10131000060095040500900406008A040500850473
:101320000500800406007A040500750405007004B9
:1013300005006B04050066040500610405005C04FB
:10134000050057040500520405004D04050048043B
:101350000500430405003E0404003A04050035047A
:101360000500300404002C040500270404002304B5
:1013700005001E0404001A040400160405001104EC
:1013800004000D0404000904050004040400000422
:101390000400FC030400F8030400F4030400F00359
:1013A0000400EC030400E8030400E4030400E00389
:1013B0000400DC030400D8030400D4030400D003B9
:1013C0000400CC030400C8030300C503030024F495
:1013D00004D9201BC40C5C0E9804C4095F02650785
:1013E0007101F405F900FB04B30048048700C10350
:1013F00069005803550003034500BE023A00840209
:10140000310053022A002902250004022000E401D1
:101410001C00C8011900AF011700980114008401D5
:101420001300710110006101100051010E00430111
:101430000D0036010B002B010B0020010B001501E4
:1014400009000C01090003010800FB000800F3007B
:101450000800EB000700E4000600DE000600D800EC
:101460000600D2000600CC000500C7000500C2003F
:101470000500BD000400B9000400B5000400B1007F
:101480000400AD000400A9000400A5000300A200B0
:1014900003009F0004009B000300980003009500D8
:1014A000020093000300900003008D0002008B00F7
:1014B000030088000200860002008400030081000F
:1014C00002007F0002007D0002007B000200790024
:1014D0000200770001007600020074000200720032
:1014E0000100710002006F0002006D0001006C003D
:1014F00002006A0001006900020067000100660046
:10150000010065000100640002006200010061004A
:101510000100600001005F0002005D0001005C004E
:1015200001005B0001005A00010059000100580051
:101530000100570001005600010055000100540051
:10154000010053000000530001005200010051004F
:101550000100500001004F0001004E0000004E004D
:1015600001004D0001004C0001004B0000004B0049
:1015700001004A0001004900010048000000480045
:101580000100470001004600000046000100450040
:10159000000045000100440001004300000043003A
:1015A0000100420000004200010041000000410033
:1015B0000100400001003F0000003F0001003E002C
:1015C00000003E0001003D0000003D0001003C0025
:1015D00000003C0000003C0001003B0000003B001C
:1015E00001003A0000003A00010039000000390013
:1015F000010038000000380000003800010037000A
:101600000000370001003600000036000000360000
:1016100001003500000035000000350001003400F5
:1016200000003400000034000100330000003300EB
:1016300000003300010032000000320000003200E0
:1016400001003100000031000000310001003000D5
:10165000000030000000300001002F0000002F00CB
:1016600000002F0000002F0001002E0000002E00BF
:1016700000002E0001002D0000002D0000002D00B4
:1016800000002D0001002C0000002C0000002C00A8
:1016900000002C0001002B0000002B0000002B009C
:1016A00000002B0001002A0000002A0000002A0090
:1016B00000002A0001002900000029000000290084
:1016C0000000290000002900010028000000280077
:1016D000000028000000280000002800010027006A
:1016E000000027000000270000002700000027005E
:1016F0000100260000002600000026000000260051
:101700000000260001002500000025000000250043
:101710000000250000002500000025000100240035
:101720000000240000002400000024000000240029
:10173000010023000000230000002300000023001C
:10174000000023000000230000002300010022000D
:101750000000220000002200000022000000220001
:1017600000002200010021000000210000002100F3
:1017700000002100000021000000210000002100E5
:1017800001002000000020000000200000002000D8
:1017900000002000000020000000200000002000C9
:1017A00001001F0000001F0000001F0000001F00BC
:1017B00000001F0000001F0000001F0001001E00AD
:1017C00000001E0000001E0000001E000000043784
:1017D00000001E290000511B0000581000001009D5
:1017E0000000CC040000780200004101000000006D
:1017F0002100240027002A000000220025002800E4
:101800002B00000020002300260029000202020213
:101810000202020204040404040404040303030394
:101820000303030301010101010101010102040895
:1018300010204080010204081020408001020408AA
:1018400010204080804020100804020100000001A8
:101850000200090A0000000004030807000000005D
:101860000000000000000000000000004D323400C5
:101870004D323320257300556E6B6E6F776E20638B
:101880006F6D6D616E643A20220053442063617273
:1018900064206F6B0A006F70656E526F6F74206604
:1018A00061696C65640A00766F6C756D652E696E92
:1018B0006974206661696C65640A00534420696E2E
:1018C0006974206661696C0A00486F6D6520257334
:1018D00025732573206669727374002066697273BC
:1018E000740A005A0059005800486F6D65200000C6
:1018F00000484200004842000080400000000020F4
:10190000573A004520436F6F6C696E672E2E2E008C
:10191000452048656174696E672E2E2E0020573A67
:101920000042656420636F6F6C696E672E2E2E0017
:101930004265642068656174696E672E2E2E0020F2
:101940005A3A0020593A0020436F756E7420583A75
:101950000020453A00205A3A0020593A00583A00EF
:101960003A004361703A00205A0020590058002084
:10197000204D61783A2000205A002059005800205C
:10198000204D696E3A20004F6E20004F666600536E
:101990006F667420656E6473746F70733A200023F1
:1019A000646566696E652044454641554C545F4BFD
:1019B00064200023646566696E6520444546415590
:1019C0004C545F4B69200023646566696E65204452
:1019D000454641554C545F4B7020005049442041CE
:1019E00075746F74756E652066696E697368656479
:1019F000212050757420746865206C617374204BCD
:101A0000702C204B6920616E64204B6420636F6EE4
:101A10007374616E74732066726F6D2062656C6F93
:101A20007720696E746F20436F6E666967757261A7
:101A300074696F6E2E680A00504944204175746FB6
:101A400074756E65206661696C6564212074696DCA
:101A5000656F75740A00453120544845524D414C1C
:101A60002052554E4157415900546865726D616C62
:101A70002052756E61776179004531204865617447
:101A8000696E67206661696C6564004865617469A8
:101A90006E67206661696C65640050494420417539
:101AA000746F74756E65206661696C65642120547D
:101AB000656D706572617475726520746F6F2068F2
:101AC0006967680A00204B643A2000204B693A207D
:101AD00000204B703A20000A20436C6173736963E5
:101AE00020504944200A002054753A2000204B75AC
:101AF0003A2000206D61783A2000206D696E3A200E
:101B00000020643A200020626961733A2000504945
:101B100044204175746F74756E65206661696C65EB
:101B20006421204261642065787472756465722056
:101B30006E756D6265720A00504944204175746F7C
:101B400074756E652073746172740A004F66660A5C
:101B500000466164652048656967687420004265D5
:101B600064204C6576656C696E6720004661696C1F
:101B7000656420746F20656E61626C6520426564E7
:101B8000204C6576656C696E670A0033442050729C
:101B9000696E7465722052656164792E00507269B5
:101BA0006E74696E672E2E2E005072696E742070EE
:101BB0006175736564005072696E742061626F7242
:101BC000746564004D3231004E6F205344206361D0
:101BD0007264004368616E676520534420636172DC
:101BE00064004D3231005072696E742066726F6D00
:101BF0002053440053746F70207072696E740052E9
:101C00006573756D65207072696E7400496E6974D4
:101C10002E20534420636172640050617573652007
:101C20007072696E7400436F6E74726F6C005072E4
:101C300065706172650054756E6500496E666F204F
:101C400073637265656E00466C6F7700466C6F77E4
:101C500000466C6F770046616E20737065656400A6
:101C600046616E2073706565640046616E20737016
:101C70006565640042656400426564004265640015
:101C80004E6F7A7A6C65004E6F7A7A6C65004E6F93
:101C90007A7A6C6500466164652048656967687496
:101CA0000046616465204865696768740046616440
:101CB0006520486569676874005370656564005302
:101CC00070656564005370656564004D61696E0000
:101CD0005072656865617420504C41204265640013
:101CE0005072656865617420504C4120456E6400F7
:101CF0005072656865617420504C41005072657087
:101D000061726500507265686561742041425320BC
:101D1000456E6400507265686561742041425320CD
:101D200042656400507265686561742041425300E9
:101D300050726570617265004261636B004E657838
:101D40007420636F726E6572004D6F76696E672ED8
:101D50002E2E004C6576656C696E6720446F6E654B
:101D600021004C6576656C696E6720446F6E652155
:101D70000070012C0190012701B0012201C0011D5A
:101D800001F00118011002130130020E0160020976
:101D90000190020401C002FF000003FA004003F5B5
:101DA000008003F000D003EB002004E6007004E1A3
:101DB00000E004DC004005D700C005D2004006CD9D
:101DC00000D006C8008007C3003008BE00F008B984
:101DD00000C009B400B00AAF00B00BAA00D00CA537
:101DE00000000EA000500F9B00C0109600501291F2
:101DF0000000148C00C0158700B0178200B0197D58
:101E000000D01B7800001E730040206E00902269F5
:101E100000F024640040275F0090295A00E02B5511
:101E200000102E500020304B0010324600E03341AD
:101E30000090353C001037370070383200A0392D43
:101E400000B03A2800A03B2300603C1E00103D1962
:101E500000903D1400103E0F00703E0A00C03E0589
:101E600000003F0000403FFBFF803FF6FFC03FF116
:101E7000FF4531204572723A204D415854454D502E
:101E8000004572723A204D415854454D502042450C
:101E900044004D415854454D502074726967676540
:101EA000726564004531204572723A204D494E54A6
:101EB000454D50004572723A204D494E54454D50A3
:101EC00020424544004D494E54454D50207472699E
:101ED000676765726564004D383420582059205A70
:101EE000204500202F002042403A0020403A0025A3
:101EF000753A2530327500253032753A2530327505
:101F0000002D2D2D005344002020202020200020D3
:101F1000202020004578747275646572004D6F76DC
:101F200065205A004D6F76652059004D6F7665200B
:101F300058005072657061726500496E697469611C
:101F40006C697A6520454550524F4D00436F6E7461
:101F5000726F6C00526573746F7265206661696C94
:101F600073616665004C6F61642073657474696E9B
:101F7000677300496E697469616C697A65204545CB
:101F800050524F4D0053746F7265207365747469BD
:101F90006E67730046696C616D656E74004D6F7499
:101FA000696F6E0054656D7065726174757265005D
:101FB0004D61696E005072656865617420414253DD
:101FC00020636F6E66005072656865617420504CC6
:101FD0004120636F6E66005049442D4400504944CF
:101FE0002D44005049442D49005049442D4900508A
:101FF00049442D50005049442D5000200220466194
:1020000063740020022046616374002002204D6149
:1020100078002002204D6178002002204D61780078
:102020002002204D696E002002204D696E002002C2
:10203000204D696E004F6666004F6E20004175743A
:102040006F74656D700046616E2073706565640025
:1020500046616E2073706565640046616E20737022
:102060006565640042656400426564004265640021
:102070004E6F7A7A6C65004E6F7A7A6C65004E6F9F
:102080007A7A6C6500436F6E74726F6C0053746F74
:1020900072652073657474696E67730042656400CD
:1020A00042656400426564004E6F7A7A6C65004E4A
:1020B0006F7A7A6C65004E6F7A7A6C650046616E55
:1020C0002073706565640046616E20737065656499
:1020D0000046616E2073706565640054656D7065BF
:1020E000726174757265004573746570732F6D6DE0
:1020F000004573746570732F6D6D005A737465704D
:10210000732F6D6D005A73746570732F6D6D005968
:1021100073746570732F6D6D005973746570732FD0
:102120006D6D005873746570732F6D6D0058737406
:102130006570732F6D6D004D6F74696F6E00537411
:102140006570732F6D6D004A65726B004163636546
:102150006C65726174696F6E0056656C6F6369744B
:102160007900436F6E74726F6C0046696C2E204468
:1021700069612E0046696C2E204469612E004F660D
:1021800066004F6E20004520696E206D6D33004360
:102190006F6E74726F6C0043616E6E6F7420656E4B
:1021A000746572207375626469723A2000052E2E80
:1021B000000452656672657368004D61696E004582
:1021C0004550524F4D206461746173697A65206592
:1021D00072726F722E0A00290A0020627974657388
:1021E0003B20637263200053657474696E677320CB
:1021F00053746F726564202800290A002062797484
:1022000065733B2063726320002073746F72656492
:102210002073657474696E67732072657472696582
:10222000766564202800202863616C63756C617496
:10223000656429210A0020213D2000454550524F68
:102240004D20435243206D69736D61746368202D86
:10225000202873746F7265642920002053697A65A1
:102260003A2000496E6465783A2000204D61726C16
:10227000696E3D563535290A0028454550524F4D67
:102280003D00454550524F4D2076657273696F6E23
:10229000206D69736D617463682000000021104235
:1022A0002063308440A550C660E770088129914AB8
:1022B000A16BB18CC1ADD1CEE1EFF131121002733F
:1022C000325222B5529442F772D662399318837B08
:1022D000B35AA3BDD39CC3FFF3DEE362244334208F
:1022E000040114E664C774A44485546AA54BB52858
:1022F000850995EEE5CFF5ACC58DD553367226111F
:10230000163006D776F6669556B4465BB77AA719A7
:10231000973887DFF7FEE79DD7BCC7C448E55886E6
:1023200068A7784008611802282338CCC9EDD98EF7
:10233000E9AFF9488969990AA92BB9F55AD44AB77E
:102340007A966A711A500A333A122AFDDBDCCBBF47
:10235000FB9EEB799B588B3BBB1AABA66C877CE44E
:102360004CC55C222C033C600C411CAEED8FFDEC97
:10237000CDCDDD2AAD0BBD688D499D977EB66ED55E
:102380005EF44E133E322E511E700E9FFFBEEFDDE7
:10239000DFFCCF1BBF3AAF599F788F8891A981CAC4
:1023A000B1EBA10CD12DC14EF16FE18010A100C2A3
:1023B00030E3200450254046706760B9839893FB52
:1023C000A3DAB33DC31CD37FE35EF3B1029012F3F3
:1023D00022D2323542145277625672EAB5CBA5A8A2
:1023E0009589856EF54FE52CD50DC5E234C324A043
:1023F0001481046674476424540544DBA7FAB79932
:1024000087B8975FE77EF71DC73CD7D326F2369192
:1024100006B01657667676154634564CD96DC90EF9
:10242000F92FE9C899E9898AB9ABA94458654806E2
:10243000782768C018E1088238A3287DCB5CDB3F91
:10244000EB1EFBF98BD89BBBAB9ABB754A545A3732
:102450006A167AF10AD01AB32A923A2EFD0FED6C61
:10246000DD4DCDAABD8BADE89DC98D267C076C6482
:102470005C454CA23C832CE01CC10C1FEF3EFF5D71
:10248000CF7CDF9BAFBABFD98FF89F176E367E55D2
:102490004E745E932EB23ED10EF01E7C3C3E5E2BFF
:1024A0003D3F2F5B5D3B2C2A225C005654726176C7
:1024B000206D696E005654726176206D696E00560B
:1024C00054726176206D696E00566D696E00566DAE
:1024D000696E00566D696E00566D61782045005634
:1024E0006D6178204500566D6178204500566D611C
:1024F00078205A00566D6178205A00566D61782018
:102500005A00566D6178205900566D617820590047
:10251000566D6178205900566D6178205800566DCF
:102520006178205800566D61782058004D6F7469AD
:102530006F6E00416D6178204500416D61782045E6
:1025400000416D6178205A00416D6178205A004148
:102550006D6178205900416D6178205900416D61AD
:1025600078205800416D6178205800412D747261C7
:1025700076656C00412D74726176656C00412D7238
:1025800065747261637400412D7265747261637465
:1025900000416363656C00416363656C004D6F745B
:1025A000696F6E0056652D6A65726B0056652D6AFF
:1025B00065726B0056652D6A65726B00567A2D6ADE
:1025C00065726B00567A2D6A65726B0056792D6ABA
:1025D00065726B0056792D6A65726B0056792D6AAB
:1025E00065726B0056782D6A65726B0056782D6A9D
:1025F00065726B0056782D6A65726B004D6F746959
:102600006F6E004572726F722077726974696E67BF
:1026100020746F20454550524F4D210A0048617289
:1026200064636F6465642044656661756C742053EF
:10263000657474696E6773204C6F616465640A0029
:1026400088130000881300004B000000881300006E
:102650000000C8430000C8430000004000003442AE
:10266000E17A9D42E17A9D42000020450000D2427D
:10267000545249474745524544006F70656E003AD1
:1026800020007A5F6D696E00795F6D696E00785F1A
:102690006D696E005265706F7274696E6720656E49
:1026A0006473746F70207374617475730A0062656B
:1026B000640A002C2073797374656D2073746F70D5
:1026C00070656421204865617465725F49443A20F1
:1026D000004265642068656174696E67206661699F
:1026E0006C65640048656174696E67206661696C39
:1026F00065640045312048656174696E67206661D4
:10270000696C65640048656174696E67206661691B
:102710006C656400453120544845524D414C20526F
:10272000554E415741590042454420544845524D69
:10273000414C2052554E4157415900546865726DC5
:10274000616C2052756E6177617900526573656EB8
:10275000643A2000FEE572E011241FBECFEFD0E402
:10276000DEBFCDBF12E0A0E0B1E0EAEAF9EE01E0A1
:102770000BBF02C007900D92A435B107D9F722E133
:10278000A4E5B2E001C01D92A632B207E1F713E161
:10279000CBEAD3E104C02197FE010E9433F4CA3A88
:1027A000D107C9F70E94AEE00C94C8F40C94000065
:1027B0002F923F924F925F926F927F928F929F9251
:1027C000AF92BF92CF92DF92EF92FF920F931F933F
:1027D000CF93DF93CDB7DEB7CB56D1090FB6F894C0
:1027E000DEBF0FBECDBF21E02093DB0280919D11A3
:1027F0008D3409F4C6C7843511F40C94EA28873463
:1028000011F00C94362920909B1130909C113CE1E2
:102810002316310409F434C694F454E02516310427
:1028200044F482E0281631040CF03EC037FE35C077
:10283000A4C794E02916310409F4E4C59EC7AAE5AB
:102840002A16310409F4DAC65CF4EDE12E163104DF
:1028500009F42DC6FAE22F16310409F42CC68DC7EF
:102860003BE52316310409F4CDC64CE524163104AA
:1028700009F083C75AE5252E51E0352E69EEE62E84
:1028800062E0F62E89EE9FE099AF88AF7EE4C72E16
:1028900075E0D72E00E010E0F4C680915901811157
:1028A0000C943D290C94382980915901882311F406
:1028B0000C9438290E94FA5082E50E94F43D882346
:1028C00009F44CC10E94783D4B015C0120E030E0EE
:1028D000A9010E9464EC882309F470C18091E90F7A
:1028E0009091EA0FA091EB0FB091EC0F88AF99AFE8
:1028F000AAAFBBAF2091ED0F3091EE0F4091EF0FDB
:102900005091F00F2CAF3DAF4EAF5FAF8091F5020D
:102910009091F602A091F702B091F8022C968CAF3C
:102920009DAFAEAFBFAF2C972091F9023091FA0264
:102930004091FB025091FC0228962CAF3DAF4EAF68
:102940005FAF28979C01AD0168AD79AD8AAD9BADB5
:102950000E9464EC81110FC028962CAD3DAD4EADA8
:102960005FAD28976CAD7DAD8EAD9FAD0E9464ECE0
:10297000882309F423C111E032E02316310409F061
:1029800010E020E030E0A901C501B4010E9464EC30
:10299000881F8827881F181759F080E090E0A0E86A
:1029A000BFEB64968CAF9DAFAEAFBFAF64970AC06C
:1029B00020E030E040E85FE364962CAF3DAF4EAFDF
:1029C0005FAF649728AD39AD4AAD5BAD2C966CAD69
:1029D0007DAD8EAD9FAD2C970E94D9F060966CAF07
:1029E0007DAF8EAF9FAF60972CAD3DAD4EAD5FAD6F
:1029F00028966CAD7DAD8EAD9FAD28970E94D9F025
:102A00006B017C0160962CAD3DAD4EAD5FAD609726
:102A1000CA01B9010E94CAEC2B013C01A701960131
:102A2000C701B6010E94CAEC9B01AC01C301B2010F
:102A30000E94DAF00E9488F324966CAF7DAF8EAFCF
:102A40009FAF249720E030E040E05FE30E94CAECB3
:102A50002B013C01A5019401C501B4010E94CAECFF
:102A60004B015C01A3019201C301B2010E94CAECB7
:102A70009B01AC01C501B4010E94D9F00E9488F30A
:102A800064962CAD3DAD4EAD5FAD64970E94CAEC2F
:102A90004B015C01C701B601905824962CAD3DADA9
:102AA0004EAD5FAD24970E94D4F1A50194010E9420
:102AB000CAEC6B017C012C962CAD3DAD4EAD5FADEB
:102AC0002C9768AD79AD8AAD9BAD0E94DAF020E01D
:102AD00030E040E05FE30E94CAEC9B01AC01C7011B
:102AE000B6010E94DAF028AD39AD4AAD5BAD0E9467
:102AF000D9F06B017C0128962CAD3DAD4EAD5FAD9C
:102B000028976CAD7DAD8EAD9FAD0E94DAF020E0D0
:102B100030E040E05FE30E94CAEC2B013C012496C8
:102B20002CAD3DAD4EAD5FAD249760966CAD7DADE7
:102B30008EAD9FAD60970E94D4F1A50194010E94D3
:102B4000CAEC9B01AC01C301B2010E94DAF02CADCA
:102B50003DAD4EAD5FAD0E94D9F014C089E40E9436
:102B6000F43D882329F00E94783D6B017C0103C06D
:102B7000C12CD12C76018AE40E94F43D882309F10E
:102B80000E94783D2C966CAF7DAF8EAF9FAF2C9797
:102B900020E030E0A901C701B6010E9464EC811178
:102BA0001FC020E030E0A9012C966CAD7DAD8EAD4C
:102BB0009FAD2C970E9464EC811112C0E9E5FFE003
:102BC0000DC420E030E0A901C701B6010E9464EC09
:102BD0008823A1F32C961CAE1DAE1EAE1FAE2C9703
:102BE000D701C601B05888AF99AFAAAFBBAF2C963A
:102BF0002CAD3DAD4EAD5FAD2C9750582CAF3DAFD9
:102C00004EAF5FAF9C01AD01BC01CD010E94CAEC8B
:102C10004B015C012CAD3DAD4EAD5FADCA01B901BC
:102C20000E94CAEC9B01AC01C501B4010E94DAF01C
:102C30000E9488F3A0966CAF7DAF8EAF9FAFA09738
:102C40008091E90F9091EA0FA091EB0FB091EC0FFA
:102C500028968CAF9DAFAEAFBFAF2897A701960166
:102C6000BC01CD010E94DAF064966CAF7DAF8EAFEF
:102C70009FAF64972091ED0F3091EE0F4091EF0FD1
:102C80005091F00F60962CAF3DAF4EAF5FAF6097A5
:102C90002C962CAD3DAD4EAD5FAD2C9760966CADD6
:102CA0007DAD8EAD9FAD60970E94DAF0A4966CAFBB
:102CB0007DAF8EAF9FAFA4978091F5029091F60201
:102CC000A091F702B091F80268968CAF9DAFAEAFBD
:102CD000BFAF689764962CAD3DAD4EAD5FAD6497C8
:102CE000BC01CD010E94D9F06B017C012091F90259
:102CF0003091FA024091FB025091FC026C962CAF8D
:102D00003DAF4EAF5FAF6C97A4962CAD3DAD4EADD1
:102D10005FADA4976C966CAD7DAD8EAD9FAD6C979D
:102D20000E94D9F04B015C018091F10F9091F20F5C
:102D3000A091F30FB091F40FA8968CAF9DAFAEAFFA
:102D4000BFAFA8979C01AD016091FD027091FE029A
:102D50008091FF02909100030E94D9F024966CAFFD
:102D60007DAF8EAF9FAF2497A701960168AD79AD77
:102D70008AAD9BAD0E94CAEC2B013C01A5019401D8
:102D80006CAD7DAD8EAD9FAD0E94CAEC9B01AC01D8
:102D9000C301B2010E94DAF02B013C01A5019401AC
:102DA00068AD79AD8AAD9BAD0E94CAEC4B015C0168
:102DB000A70196016CAD7DAD8EAD9FAD0E94CAECB2
:102DC0009B01AC01C501B4010E94D9F0A30192019D
:102DD0000E9459F16B017C0120E030E0A9010E94C2
:102DE00064EC87FF0AC02BED3FE049EC50E4C701DB
:102DF000B6010E94DAF06B017C0192E029163104E1
:102E000051F42BED3FE049EC50E4C701B6010E94BC
:102E1000D9F06B017C0120E030E0A901C701B601C7
:102E20000E9464EC811128C068962CAD3DAD4EAD7A
:102E30005FAD689728966CAD7DAD8EAD9FAD289740
:102E40000E9464EC811118C06C962CAD3DAD4EAD66
:102E50005FAD6C9760966CAD7DAD8EAD9FAD6097AC
:102E60000E9464EC811108C0ABEDCA2EAFE0DA2EEF
:102E7000A9ECEA2EA0E4FA2EA7019601A0966CAD6B
:102E80007DAD8EAD9FADA0970E94CAEC4B015C0159
:102E900020E030E0A90124966CAD7DAD8EAD9FADF4
:102EA00024970E9464EC8823E9F0A5019401C501F0
:102EB000B4010E94CAEC4B015C0124962CAD3DADDF
:102EC0004EAD5FAD2497CA01B9010E94CAEC9B01C7
:102ED000AC01C501B4010E94DAF00E9488F34B01F5
:102EE0005C010DC020E030E0A901C501B4010E94E1
:102EF0003AF387FF04C0B7FAB094B7F8B0942FE65E
:102F000032E143E85AE3C501B4010E9464EC87FF53
:102F100002C00C943829C501B4010E947CF20E94C1
:102F20004DF22E967FAF6EAF2E97DB01AB2B31F4B7
:102F3000E1E0F0E02E96FFAFEEAF2E974090F50F58
:102F40005090F60F6090F70F7090F80F2E962EAD00
:102F50003FAD2E97B90180E090E00E9469EC4B01F3
:102F60005C019B01AC01C701B6010E94D4F1289617
:102F70006CAF7DAF8EAF9FAF2897A50194012496CB
:102F80006CAD7DAD8EAD9FAD24970E94D4F1A0961F
:102F90006CAF7DAF8EAF9FAFA097A3019201609100
:102FA00001037091020380910303909104030E9436
:102FB000D9F0A50194010E94D4F1AC966CAF7DAF1D
:102FC0008EAF9FAFAC9728962CAD3DAD4EAD5FADAB
:102FD0002897CA01B9010E94CAEC20E030E040E025
:102FE0005FE30E94CAEC9B01AC0160E070E080E806
:102FF0009FE30E94D9F068966CAF7DAF8EAF9FAF14
:103000006897A8968CAD9DADAEADBFADA8978987EA
:103010009A87AB87BC874D865E866F86788A60917B
:10302000420170914301072E000C880B990B0E94FE
:103030006BEC209138013091390140913A01509167
:103040003B010E94CAEC2AE037ED43E25CE30E94B8
:10305000CAEC6CAB7DAB8EAB9FAB0E94255B9B013A
:10306000AC0128533F4F4F4F5F4F6C962CAF3DAF95
:103070004EAF5FAF6C9748AC59AC6AAC7BAC2224C6
:103080002394312C39E121963FAF21972E964EADF6
:103090005FAD2E974215530509F44CC10E949FDB8A
:1030A0000E94255BDC01CB016C962CAD3DAD4EAD95
:1030B0005FAD6C97821B930BA40BB50BB7FD10C0D3
:1030C0000E94255B9B01AC0128533F4F4F4F5F4F40
:1030D0006C962CAF3DAF4EAF5FAF6C970E948946A8
:1030E00021963FAD2197315021963FAF2197332351
:1030F00009F445C02CAD3DAD4EAD5FAD68966CADED
:103100007DAD8EAD9FAD68970E94CAEC6B017C01CE
:103110009201A30128966CAD7DAD8EAD9FAD289731
:103120000E94CAECA70196010E94DAF07B018C0193
:103130009201A30168966CAD7DAD8EAD9FAD689791
:103140000E94CAEC4B015C012CAD3DAD4EAD5FADB4
:1031500028966CAD7DAD8EAD9FAD28970E94CAECD0
:103160009B01AC01C501B4010E94D9F02B013C01C7
:10317000C701D8018CAF9DAFAEAFBFAF55C0B10195
:1031800080E090E00E9469EC28962CAD3DAD4EADFC
:103190005FAD28970E94CAEC4B015C010E94CFF101
:1031A0006B017C01C501B4010E947AF34B015C0103
:1031B000A701960168AD79AD8AAD9BAD0E94CAECBE
:1031C0002B013C012C962CAD3DAD4EAD5FAD2C9747
:1031D000C501B4010E94CAECA30192010E94DAF079
:1031E0002B013C01A501940168AD79AD8AAD9BAD81
:1031F0000E94CAEC4B015C012C962CAD3DAD4EAD4E
:103200005FAD2C97C701B6010E94CAEC9B01AC01CF
:10321000C501B4010E94D9F06CAF7DAF8EAF9FAFF6
:1032200049E121964FAF21979201A30164966CADBD
:103230007DAD8EAD9FAD64970E94DAF069837A838D
:103240008B839C832CAD3DAD4EAD5FADA4966CAD34
:103250007DAD8EAD9FADA4970E94DAF06D837E8325
:103260008F839887A0962CAD3DAD4EAD5FADA097F6
:1032700069857A858B859C850E94DAF069877A87D3
:103280008B879C87AC962CAD3DAD4EAD5FADAC97BA
:103290006D857E858F8598890E94DAF06D877E879F
:1032A0008F87988B80912501882321F0CE0101968C
:1032B0000E948944E0906D051CA61DA61EA61FA6AF
:1032C00089819A81AB81BC8188A399A3AAA3BBA35E
:1032D0008D819E81AF81B8858CA39DA3AEA3BFA332
:1032E00089859A85AB85BC8588A799A7AAA7BBA71E
:1032F000AE01485D5F4FBE016C5D7F4FCE01809691
:103300000E94C6D3CE018C966C018E010C5C1F4FBF
:103310009E01235F3F4FAE01485D5F4FBE016C5D74
:103320007F4F0C970E94362B882321F09FEF291A9C
:10333000390AACCEE0906D0518AA19AA1AAA1BAAE0
:103340008091F5029091F602A091F702B091F802F7
:1033500088A399A3AAA3BBA38091F9029091FA0232
:10336000A091FB02B091FC028CA39DA3AEA3BFA3CE
:103370008091FD029091FE02A091FF02B0910003A6
:1033800088A799A7AAA7BBA7AE01485D5F4FBE015A
:103390006C5D7F4FCE0180960E94C6D3DE01D09631
:1033A0006D018E010C5C1F4F21E033E0AE01485DE2
:1033B0005F4FBE016C5D7F4FCE0180960E94362B21
:1033C00080E1E5EFF2E0A9EEBFE001900D928A9571
:1033D000E1F70C9438290E94ED3EF80184918F01A9
:1033E0000F5F1F4F8111F7CFE1E6F1E084918F016C
:1033F0000F5F1F4F882311F40C9438290E94ED3E73
:10340000F801F4CF80E50E94F43D882329F00E9462
:10341000343D6B017C0103C0C12CD12C760183E5C6
:103420000E94F43D882361F00E94783D20E030E066
:103430004AE754E40E94CAEC0E944DF26B017C0101
:103440000E94033980919E05811105C060E087E7E5
:1034500091E00E94926D0E94255BC60ED71EE81E69
:10346000F91E0E94255BDC01CB018C199D09AE0978
:10347000BF09B7FD02C00C9438290E948946F1CFDC
:103480008091A3038770873011F00C9442298FE458
:103490000E94F43D882319F00E94683D03C08FE428
:1034A0000E94AB3D81110C9438290C9442290E9452
:1034B00078530C94382980915901882311F40C9485
:1034C000382989E40E94F43DE82E882321F00E94E7
:1034D000443DF62E01C0F12C8AE40E94F43D082FF1
:1034E000882321F00E94443D162F01C010E0EE20F9
:1034F00019F0F3E0FF1520F0002381F0143070F094
:10350000EDE9F1E084918F010F5F1F4F882311F4E3
:103510000C9438290E94ED3EF801F4CF0E94E33E5E
:10352000EE20F1F020914405309145054F2D4203E6
:10353000B001439F700D11248091C5109091C61069
:10354000680F791F072E000C880B990B0E946BECFB
:103550006093F5027093F6028093F7029093F8025D
:103560000023E9F020914605309147051203B00190
:10357000139F700D11248091C7109091C810680F8F
:10358000791F072E000C880B990B0E946BEC60933F
:10359000F9027093FA028093FB029093FC0280E59B
:1035A0000E94F43D882319F00E94683D03C080E525
:1035B0000E94AB3D86E40E94F43D8823D9F00E942E
:1035C000783D6B017C0120E030E0A9010E943AF3D4
:1035D000181684F420E030E040E752E4C701B60159
:1035E0000E94D4F1609338017093390180933A01BD
:1035F00090933B010E94D7490C94382910925802AD
:103600000C943829209358020C9438290E94783D54
:103610002B013C01133049F0F601208131814281B8
:1036200053810E94D9F02B013C01A8ADB9AD2D9179
:103630003D914D915C91C301B2010E94D9F04B01C3
:103640005C012DEB37E346E855EB0E943AF387FD2A
:1036500020C02DEB37E346E855E3C501B4010E94D5
:1036600064EC1816B4F01F5FB4E0EB0EF11CE8AD8B
:10367000F9AD3496F9AFE8AFF4E0CF0ED11C1430B9
:1036800039F1D1018D911D010E94F43D882359F338
:10369000BDCF133051F44092F50F5092F60F609267
:1036A000F70F7092F80F01E0DECFA5019401F7014A
:1036B00060817181828193810E94DAF0D7016D93DC
:1036C0007D938D939C931397812F0E94E73ACBCFE4
:1036D000002309F44EC020E030E0A9016091F50F0D
:1036E0007091F60F8091F70F9091F80F0E94DAF029
:1036F00020917C1030917D1040917E1050917F1070
:103700000E94CAEC0E9447F36093F0057093F105A4
:103710008093F2059093F3059091CE058091CF05AB
:10372000981719F00E94A53824C00E94033980918F
:103730006F00982F927081FF05C080916F008D7F80
:1037400080936F004091F0055091F1056091F20572
:103750007091F30540933B1150933C1160933D11E0
:1037600070933E11992329F080916F0082608093BD
:103770006F000E94558D0C9438290E94DF830C94B1
:10378000382980919B1190919C118137910509F402
:1037900028C50CF0C3C08B34910509F479C40CF032
:1037A00067C08831910509F479C2ACF58231910581
:1037B00009F4F4C5BCF497FF02C00C94E7288230EA
:1037C00091050CF49BC1419711F00C94E72860E03F
:1037D0008FEC91E00E94926D5E985E9815985E98CD
:1037E0000C9438298531910509F43DC23CF4449785
:1037F00011F00C94E728E7EEF1E0F7C1863191056E
:1038000009F435C2479711F00C94E728E09199111B
:10381000F0919A1136C28D31910511F40C9438292A
:10382000C4F48A31910509F448C20CF440C28B31CA
:10383000910509F450C24C9711F00C94E72840E030
:1038400060E08091991190919A110E943F750C94BB
:1038500038298F31910509F4BCC30CF4D4C28032ED
:10386000910509F46AC38A9709F4DDC30C94E7282B
:103870008C35910509F4DEC524F58135910509F4EF
:1038800072C57CF48D34910509F40AC40CF404C4A7
:103890008E34910511F00C94E7280E94E24F0C94AD
:1038A00038298335910509F475C50CF470C5843544
:1038B000910509F473C58535910509F4A2C50C94E9
:1038C000E7288C36910509F484C4ACF48936910557
:1038D00009F4B4C434F48836910509F4E5C30C94B2
:1038E000E7288A36910509F411C58B36910509F44C
:1038F0002AC50C94E7288E36910509F404C40CF40B
:10390000DFC48F36910509F411C48037910511F099
:103910000C94E7288CE792E00E9439468C3D910593
:1039200011F40C945A260CF061C08139910509F408
:103930000AC70CF58637910509F4ABC664F48337E2
:10394000910509F4D8C00CF4FDC58537910509F43B
:1039500091C60C94E7288837910509F4E9C60CF460
:10396000E4C68937910509F4E9C68C38910509F454
:10397000ABC40C94E7288B3C910511F40C94832480
:10398000FCF48E3B910509F4BDC434F48B399105E8
:1039900009F46FC40C94E728883C910509F44BC7DF
:1039A000893C910511F00C94E728FAE5EF2EF1E03F
:1039B000FF2E02EE10E1A2EFCA2EA0E1DA2E8BC795
:1039C0008D3C910511F40C94132514F40C949E2451
:1039D0008E3C910511F40C949225833D910511F0D4
:1039E0000C94E7280E94408C0C943829853A31E0E9
:1039F000930711F40C940F280CF03FC08F3251E064
:103A0000950711F40C94F327D4F4823E910511F438
:103A10000C94D6263CF48D3D910511F40C94672648
:103A20000C94E7288D32B1E09B0711F40C94FF262B
:103A30008E32914011F40C949F270C94E728803922
:103A4000F1E09F0711F40C940C284CF4833691405C
:103A500011F00C94E728E9E5FFE00C94F9278A3986
:103A600041E0940709F4B9C3843A914011F00C94F1
:103A7000E7280E941F8E0C943829883FA1E09A07FE
:103A800011F40C94A428ECF4843FE1E09E0711F4B7
:103A90000C949E283CF48C3A914011F40C94B4257B
:103AA0000C94E728853F31E0930711F40C94A1288A
:103AB000863F914011F00C94E7280E9469D70C943E
:103AC00038298B3853E0950711F40C9438293CF4CD
:103AD0008435934011F40C94C7280C94E728803A5D
:103AE000E3E09E0709F468C2873E934011F40C940A
:103AF000D2280C94E728E4E8F3E061C5A09099117E
:103B0000B0909A1180E50E94F43D882359F00E94FC
:103B1000343D6B017C0111E0672B682B692B31F47C
:103B200010E004C010E0C12CD12C760183E50E9486
:103B3000F43D882311F40C94202A0E94783D20E063
:103B400030E04AE754E40E94CAEC0E944DF26B0157
:103B50007C0111110BC0672B682B692B39F4A11460
:103B6000B10421F0D5018C91811102C010E001C097
:103B700011E00E940339112329F061E0C5010E9480
:103B8000CC6D05C060E08CEB91E00E94926D83E00B
:103B90008093DB0281E080937D05C114D104E104B0
:103BA000F104B1F00E94255BC60ED71EE81EF91E77
:103BB0000E94255BDC01CB018C199D09AE09BF0970
:103BC000B7FF0DC080917D0581110C94252A07C097
:103BD00080917D05882319F00E948946F9CF0E94C3
:103BE0000E9710927D050C94382984918F010F5FF8
:103BF0001F4F882321F00E94ED3EF801F6CF10926E
:103C0000730886E296E00E9471BF8BE1E6E2F6E07F
:103C1000DE01159601900D928A95E1F780912406B8
:103C2000909125069C838B838AE891E09A8389830F
:103C300040E050E0BE016F5F7F4F80E090E00E9467
:103C40007A72CE0101960E941D46E8EDF1E0849162
:103C50008F010F5F1F4F882311F40C9438290E94A5
:103C6000ED3EF801F4CF0E9443870C94382910925E
:103C7000F6051092F7050C943829803209F4108269
:103C8000319680818111F9CF40E061E080919911F6
:103C900090919A110E943F750C9438298091F705F4
:103CA00081112093F6050E94DB7E0C943829109236
:103CB000F6050E9475DE0C9438298091F70588235B
:103CC00011F40C94382983E50E94F43D81110C9481
:103CD000292A0C94382983E40E94AB3D882309F4F7
:103CE00050C0E5E2F2E084918F010F5F1F4F8823FF
:103CF00021F00E94ED3EF801F6CF8091C1078111BD
:103D000003C0E8EFF1E012C0BE016F5F7F4F8EEBA2
:103D100097E00E9438BE8E010F5F1F4FF80181911E
:103D20008F01882349F10E94ED3EF8CF84918F01E5
:103D30000F5F1F4F882301F10E94ED3EF801F6CF7F
:103D400047E6C42E42E0D42EE12CF12C20E08091F5
:103D50005E0290E00E2C02C0959587950A94E2F7DA
:103D600080FD14C2BFEFEB1AFB0AE2E0CE0ED11CBD
:103D7000F5E0EF16F10459F78AE00E94ED3E0C944D
:103D800038298091F705882339F08091F60588233A
:103D900019F0E2E0F2E003C0E4E1F2E028C084912F
:103DA0008F010F5F1F4F882321F00E94ED3EF80125
:103DB000F6CF60916F0870917008809171089091B2
:103DC00072084AE00E940E438FE20E94ED3E60912D
:103DD0006B0870916C0880916D0890916E084AE0B4
:103DE0000E940E438AE00E94ED3E0C943829849193
:103DF0008F010F5F1F4F882311F40C9438290E9404
:103E0000ED3EF801F4CF8091F705882311F40C946E
:103E100038298EEB97E00E94F1CF8EEB97E00E945D
:103E200013BE1092F5051092F4058091F7058823D2
:103E300011F40C9438290091991110919A11109253
:103E4000F6058091C107882321F08EEB97E00E9450
:103E500013BEB801CE0180960E9483748C01892B19
:103E600011F40C94382968A179A16115710511F03C
:103E70006C5F7F4F19821C8222E0A801CE0101965F
:103E80000E9411C4811102C0F12C14C0CE01019610
:103E90000E94B6718823C1F361E0CE0101960E94B1
:103EA0001CBE009789F325EEDC012C931C820E9436
:103EB00096CDF82ECE0101960E94DD3EF11003C092
:103EC000E2E4F2E022C0E4E3F2E084917F01BFEF9C
:103ED000EB1AFB0A882321F00E94ED3EF701F5CF93
:103EE000F80181918F01882319F00E94ED3EF8CFEF
:103EF0008AE00E94ED3E10926F08109270081092B6
:103F00007108109272080C94382984917F012FEF68
:103F1000E21AF20A882321F00E94ED3EF701F5CF64
:103F2000D8018D918D01882319F00E94ED3EF8CFC4
:103F30008EE20E94ED3E0C9438298091F6058111A5
:103F40000E9403398091F705882311F40C943829D5
:103F500080E50E94F43D882319F00E94683D03C06B
:103F600080E50E94AB3D182F482F61E080919911A8
:103F700090919A110E943F7583E50E94F43D882339
:103F800081F00E94443DAB01BC0140936F08509307
:103F9000700860937108709372088EEB97E00E942E
:103FA00029BD8091F705882319F081E08093F605FB
:103FB00011110C94382977CE8091991190919A1112
:103FC00021E02093F50540E060E00E943F750C94ED
:103FD00038290E9426DE68A379A38AA39BA3BE0189
:103FE0006F5F7F4FCE0180960E94013E60E0CE0160
:103FF00001960E94CC6DE8E8FFE084918F010F5F8D
:104000001F4F882321F00E94ED3EF801F6CFBE013C
:104010006F5F7F4F8AE592E00E94C07E8AE00E9437
:10402000ED3E0C94382983E50E94F43D882311F479
:104030000C9438290E94543DE82E80E50E94F43DFE
:10404000882339F00E94543D182F87FF03C00C9439
:1040500038291BE189E40E94F43D882351F00E9435
:10406000683D81110C94DC2AECEFF4E089E295E0E4
:104070000AC089E40E94AB3DF4CF31968E179F07AA
:1040800011F40C94DC2A24911213F7CF0C946A2AB1
:104090000E94DB7E0C9438290E9475DE0C9438292E
:1040A0000E94227F0C94382988E690E00E947B438E
:1040B00081110C94382980915E0283FF02C00C9418
:1040C000382983E50E94F43D8823C9F00E94783D99
:1040D0000E9446F27093CB0D6093CA0D80E00E945F
:1040E0002AD90E94783D20E030E04AEA52E40E945A
:1040F00064EC181624F00E94227F0E940E970E9402
:10410000A47F0C9438298EE40E94F43D882311F496
:104110000C9438290E94443D60939A0570939B0546
:1041200080939C0590939D050C94382983E50E940B
:10413000AB3D882359F083E50E94F43D882319F0B4
:104140000E94543D01C080E080935E02E8E8FFE0F9
:1041500084918F010F5F1F4F811103C0E5E7F2E0EB
:1041600004C00E94ED3EF801F3CF84918F010F5FF0
:104170001F4F882321F00E94ED3EF801F6CF809179
:104180005E028111DDCDE1E7F2E018C0BB24B394FB
:10419000B20E222319F08CE20E94ED3EF6018591C9
:1041A0009491FC0184918F010F5F1F4F882321F0B0
:1041B0000E94ED3EF801F6CF2B2DD4CD84918F01D6
:1041C0000F5F1F4F882309F4D7CD0E94ED3EF80101
:1041D000F5CF109218010C9438290E94DC870C94BA
:1041E000382983E50E94F43D811103C0E8E8FFE02F
:1041F0000DC00E94543D8D3320F480930C010C942B
:1042000038298CE380930C010C94382984918F0118
:104210000F5F1F4F882321F00E94ED3EF801F6CF7B
:1042200040910C0150E060E070E085E892E00E946F
:104230006D7E8AE00E94ED3E0C94382989E690E07C
:104240000E947B43811111C0ECE8F2E084918F0160
:104250000F5F1F4F882321F00E94ED3EF801F6CF3B
:104260000E94BEA18AE00E94ED3E1092DB020C94F7
:104270001C2B83E50E94F43D882311F40C9438290B
:104280000E94543D182F8D3308F01CE31093E80270
:104290000E94255B6B017C01212F30E0A8EEB3E08A
:1042A0000E94CAF0C60ED71EE81EF91EC092E40294
:1042B000D092E502E092E602F092E7020C943829EF
:1042C0000E94B7910C94382980915E0283FF02C04E
:1042D0000C94382983E50E94F43D882311F40C9452
:1042E00038290E94783D0E9446F26D37710514F01E
:1042F0006DE770E07093C90D6093C80D0E94DED821
:104300000C9438290E94DE8F0C94382980E50E9495
:10431000F43D811106C083E50E94F43D882361F0DD
:1043200006C00E94543D81110C943829F4CF0E949C
:10433000443D6F3F710510F06FEF70E07093CD0D4D
:104340006093CC0D95C780E50E94F43D811105C0B6
:104350001092CD0D1092CC0D8BC70E94443D672B5F
:1043600009F086C7F5CF0E9476D90E941A3A1092BA
:10437000CD0D1092CC0D68EE73E080E090E00E94CD
:104380001A6D60E08FE892E00E94926D71C7109202
:1043900057026EC781E0809357026AC783E50E9487
:1043A000F43D882399F00E94783D20E030E04AE710
:1043B00054E40E94CAEC0E944DF260930D01709388
:1043C0000E0180930F019093100152C788E50E945F
:1043D000AB3D81110C943A2A89E50E94AB3D8111D5
:1043E0000C943A2A8AE50E94AB3D81110C943A2A3A
:1043F00085E40E94AB3D81110C943A2A0E941A3A3E
:1044000037C783E50E94AB3D882309F431C70E947A
:10441000783D20E030E04AE754E40E94CAEC0E9474
:104420004DF26093E0027093E1028093E202909378
:10443000E3021EC72AE5C22E21E0D22E30E7E32E8A
:1044400030E1F32E10E0D6018D916D010E94AB3D5D
:10445000882309F46DC0133009F063C00E94783DD1
:104460004B015C0120E030E040EA51E40E9464EC42
:1044700087FF4EC0A501940160917C1070917D1062
:1044800080917E1090917F100E94D4F12B013C010D
:104490009B01AC0160910A1170910B1180910C117C
:1044A00090910D110E94CAEC60930A1170930B1148
:1044B00080930C1190930D11A30192016091DE1075
:1044C0007091DF108091E0109091E1100E94CAEC91
:1044D0006093DE107093DF108093E0109093E110F2
:1044E00060918A0870918B0880918C0890918D085A
:1044F0000E9469ECA30192010E94CAEC0E944DF255
:1045000060938A0870938B0880938C0890938D0831
:1045100080927C1090927D10A0927E10B0927F10BD
:1045200007C00E94783DF701608371838283938383
:104530001F5FF4E0EF0EF11C143009F084CF0E94ED
:104540002F8096C60E94033983E50E94F43D88239C
:1045500009F40FC90E94443D6230710509F009C990
:104560000E94B74D8BE50E94ED3E6091050370916E
:104570000603809107039091080342E00E94D9430B
:104580004091090350910A0360910B0370910C0351
:1045900082EA92E00E948A7E40910D0350910E03C0
:1045A00060910F03709110038FE992E00E948A7E60
:1045B0008DE50E94ED3E8AE00E94ED3E59C6849151
:1045C0008F010F5F1F4F882321F00E94ED3EF801FD
:1045D000F6CF60E084E793E00E941E8D61E08DE6F7
:1045E00093E00E941E8D61E082E693E00E941E8DA2
:1045F00061E082E593E00E941E8D60E089E493E033
:104600000E941E8D61E08FE393E00E941E8D60E0AA
:1046100085E393E00E941E8D60E08DE293E00E94AE
:104620001E8D61E08FE193E00E941E8D60E081E1CC
:1046300093E00E941E8D60E082E093E00E941E8D58
:1046400060E084EF92E00E941E8D60E08EED92E0CB
:104650000E941E8D60E08DEC92E00E941E8D60E055
:1046600088EB92E00E941E8D61E085EA92E00E9454
:104670001E8DFEC58091991190919A11DC012C91AB
:10468000222321F060E00E94CC6DF2C50E940E97BB
:10469000EFC50091991110919A1183E0D12C40E05F
:1046A0008150E1F0F8019081292F2B7F2134C1F74F
:1046B00021812133A9F7913421F0953421F441E08F
:1046C00002C0DD24D39498012E5F3F4F89012F5FF4
:1046D0003F4FD8019C919032C9F3E2CF442369F057
:1046E000E8E8FFE084917F01BFEFEB1AFB0A882323
:1046F00021F00E94ED3EF701F5CFDD2069F0EAE4FC
:10470000F4E084917F012FEFE21AF20A882321F06E
:104710000E94ED3EF701F5CFD8018D918D018823E0
:1047200009F42ACB0E94ED3EF7CF0E9440D7A0C5E6
:1047300081E08093A2038093A1039AC51092A20303
:104740001092A10395C583E50E94F43D882319F0DA
:104750000E94443D02C060E070E08B0111270230EE
:104760001105D4F0E9E5FFE084918F010F5F1F4F41
:10477000811103C0EEE4F4E004C00E94ED3EF801B4
:10478000F3CF84918F010F5F1F4F882309F470C509
:104790000E94ED3EF801F5CF88E40E94F43D8823A5
:1047A000A9F00E94443D6A3A71053CF06530B1E0E1
:1047B0007B072CF064E071E002C06AEA70E0F80167
:1047C000EE0FFF1FE05AFF4E7183608386E40E9464
:1047D000F43D8823A9F00E94443DF801EE0FFF1F2D
:1047E000EC59FF4E718360836F3F710519F014F02F
:1047F0006FEF70E077FF02C060E070E0718360836C
:1048000082E40E94F43D882309F432C50E94443DAD
:104810006530710534F06F3671052CF06EE670E08E
:1048200002C065E070E0000F111FF801E45AFF4E6E
:10483000718360831DC588EC90E00E947B438111E9
:1048400017C584E40E94AB3D882309F441C00E944F
:10485000783D6B017C0111E020E030E0A9010E946D
:1048600064EC811101C010E01093841020E030E06E
:10487000A901C701B6010E9464EC882349F10E9496
:10488000783DE091081024E0E29FF0011124E05807
:10489000FF4E608371838283938320E030E0A9011F
:1048A000609180107091811080918210909183109E
:1048B0000E9464EC81110CC080E090E0A0EEBFE3A8
:1048C0008093801090938110A0938210B0938310F6
:1048D0000E94B8D1CDC4D7018D917D010E94AB3D1E
:1048E000882349F00E94783D0E944DF2F8016083D0
:1048F0007183828393830C5F1F4FC016D10659F7D3
:104900000E94D47FB5C4EAE5EE2EE1E0FE2E02ED72
:1049100010E1D7018D917D010E94AB3D882339F0D4
:104920000E94783DF80160837183828393830C5FDA
:104930001F4FF0E1023E1F0761F79AC483E50E9412
:10494000F43D8823A1F00E94783D6093FA107093A3
:10495000FB108093FC109093FD106093F210709305
:10496000F3108093F4109093F51010E001C011E063
:1049700080E50E94F43D882359F00E94783D6093C1
:10498000FA107093FB108093FC109093FD1010E0D0
:1049900082E50E94F43D882359F00E94783D60939F
:1049A000F6107093F7108093F8109093F91010E0C0
:1049B00084E50E94F43D882359F00E94783D60937D
:1049C000F2107093F3108093F4109093F51050C48C
:1049D000112309F44DC44091FA105091FB106091DD
:1049E000FC107091FD1086E794E00E948A7E409151
:1049F000F6105091F7106091F8107091F91083E75C
:104A000094E00E948A7E4091F2105091F3106091E0
:104A1000F4107091F51080E794E00E948A7E8AE09D
:104A20000E94ED3E25C481E50E94AB3D882351F0F4
:104A30000E94343D6093590270935A0280935B0246
:104A400090935C0283E50E94AB3D882351F00E9465
:104A5000783D6093CE107093CF108093D0109093D8
:104A6000D11084E50E94AB3D882351F00E94783D2F
:104A70006093CA107093CB108093CC109093CD109C
:104A800088E50E94AB3D882351F00E94783D6093F9
:104A9000FE107093FF10809300119093011189E52F
:104AA0000E94AB3D882351F00E94783D6093021133
:104AB0007093031180930411909305118AE50E946D
:104AC000AB3D8823F1F00E94783D6093061170930E
:104AD000071180930811909309112DEC3CEC4CECDC
:104AE0005DE30E9464EC181664F0E6E8F4E084915B
:104AF0008F010F5F1F4F882321F00E94ED3EF801C8
:104B0000F6CF85E40E94AB3D882309F4B1C30E942F
:104B1000783D60930A1170930B1180930C11909360
:104B20000D11A6C36AE5C62E61E0D62E74EAE72E03
:104B300073E0F72E10E0D6018D916D010E94AB3D20
:104B4000882351F00E94783DF7016083718382834E
:104B50009383812F0E94E73A1F5FF4E0EF0EF11C70
:104B6000133049F70C94B91B0E943583811180C31F
:104B70000EE219E029EE3FE039AF28AFAE014F5FFA
:104B80005F4F5A0157E7852E59E0952E1501F80120
:104B90006591759185919491A8ADB9ADCD90DD9059
:104BA000ED90FD90B9AFA8AFA70196010E94D9F092
:104BB0002B013C01F101608371838283938320E0A8
:104BC00030E040EA51EC0E943AF387FD0AC020E051
:104BD00030E040EA51E4C301B2010E9464EC1816CF
:104BE0002CF4F401849118160CF469C4D101CD9011
:104BF000DD90ED90FD901D0120E030E040EA51ECA9
:104C0000C701B6010E943AF387FD0AC020E030E0F8
:104C100040EA51E4C701B6010E9464EC18160CF595
:104C2000E9E5FFE084918F010F5F1F4F811103C001
:104C3000E6EDF4E004C00E94ED3EF801F3CF84916C
:104C40008F010F5F1F4F882321F00E94ED3EF80176
:104C5000F6CF61E088EC94E00E94926D0E940C9C7B
:104C600007C30C5F1F4FBFEF8B1A9B0AE9E00A33A3
:104C70001E0709F08CCF44EAE42E43E0F42E10E046
:104C8000F50181919191A191B1915F01F70181931A
:104C90009193A193B1937F01812F0E94E73A1F5F07
:104CA000133071F70E94558D60E088EB94E00E940C
:104CB000926DDEC283E50E94F43D882309F4D8C2D8
:104CC0000E94443D7093430160934201D1C28DED37
:104CD00090E00E947B438111CBC283E50E94F43DAA
:104CE000811103C0E8E8FFE03BC00091081010E02C
:104CF0000E94443D000F111FF801E05CFE4F7183DC
:104D000060838091081090E08C01000F111F000F4C
:104D1000111F9801245C3E4F7901880F991FFC01F7
:104D2000E05CFE4F60817181072E000C880B990BAF
:104D30000E946BEC2AE037ED43E25CE30E94CAEC90
:104D4000F801E650F04F20813181428153810E9469
:104D5000CAECD7016D937D938D939C93139788C272
:104D600084918F010F5F1F4F882321F00E94ED3E39
:104D7000F801F6CF85E40E94ED3E80910810805D39
:104D80000E94ED3EE0910810F0E0EE0FFF1FE05CA6
:104D9000FE4F6081718184EF94E00E94A77E85E2DE
:104DA0000E94ED3E8AE00E94ED3E62C280E50E94D4
:104DB000AB3D882309F45CC20E94443D6B017C0139
:104DC00083E50E94F43D882321F00E94443D8B013D
:104DD00002C00FEF1FEFC8010196039708F048C209
:104DE000D7FC46C28C2DECEFF4E09491891709F4BE
:104DF00071C33196B5E0E932FB07B9F76EC385E4BC
:104E00000E94F43D811110C080E50E94AB3D8823D3
:104E100091F00E94783D60934F10709350108093F2
:104E200051109093521007C00E94543D882361F3A3
:104E3000E9E5FFE071C089E40E94AB3D882381F081
:104E40000E94783D2CEA35EC47E25EE30E94CAEC12
:104E500060935710709358108093591090935A1084
:104E600084E40E94AB3D882381F00E94783D2CEAC7
:104E700035EC47E25EE30E94D4F1609353107093E7
:104E800054108093551090935610E8E8FFE08491F9
:104E90008F010F5F1F4F882321F00E94ED3EF80124
:104EA000F6CF40914F105091501060915110709179
:104EB000521081E395E00E948A7E2CEA35EC47E2AD
:104EC0005EE3609157107091581080915910909145
:104ED0005A100E94D4F1AB01BC018DE295E00E9412
:104EE0008A7E2CEA35EC47E25EE3609153107091C4
:104EF000541080915510909156100E94CAECAB014D
:104F0000BC0189E295E00E948A7E8AE00E94ED3E23
:104F1000AFC10E94ED3EF80184918F010F5F1F4FDA
:104F20008111F7CFE5E3F5E084918F010F5F1F4F0B
:104F3000882309F49DC10E94ED3EF801F5CF83E579
:104F40000E94AB3D182F882371F00E94783D0E948B
:104F500046F2709301016093000121E0672B09F094
:104F600020E020935D0280E50E94AB3D882359F04C
:104F70002091000130910101232B11F00E94683D26
:104F800080935D0275C1111173C1E8E8FFE084915F
:104F90008F010F5F1F4F882321F00E94ED3EF80123
:104FA000F6CF80915D02882319F066E272E002C0BC
:104FB00069E272E08CE595E00E94C07E609100019C
:104FC000709101018BE495E00E94A77EE7E4F5E093
:104FD00084918F010F5F1F4F882309F449C10E94FC
:104FE000ED3EF801F5CF0E94128842C10E94ED3ECD
:104FF000F80184918F010F5F1F4F8111F7CFEFE60A
:10500000F5E084918F010F5F1F4F882309F430C1B1
:105010000E94ED3EF801F5CF0E94033929C189E4D1
:105020000E94F43D882321F00E94443D062F01C0D8
:105030000FEF8AE40E94F43D882321F00E94443D52
:10504000162F01C01FEF8AE50E94AB3DF82E81119B
:1050500005C081E50E94AB3DD82E01C0D12C07FDD3
:1050600006C017FD04C0F1101CC0D1101AC0E9E53C
:10507000FFE084918F010F5F1F4F811103C0EDE9A5
:10508000F5E004C00E94ED3EF801F3CF84918F015A
:105090000F5F1F4F882309F4EBC00E94ED3EF8011B
:1050A000F5CF043010F41430D0F0E9E5FFE084913E
:1050B0008F010F5F1F4F811103C0EEE7F5E004C0C1
:1050C0000E94ED3EF801F3CF84918F010F5F1F4FD7
:1050D000882309F4CDC00E94ED3EF801F5CFE02E03
:1050E000000FFF08012F110F110B0E94783DEE0CED
:1050F000FF1CEE0CFF1CDD2071F0F701E00FF11F2B
:10510000EE0FFF1FEE0FFF1FEB57FF4E2081318187
:105110004281538103C020E030E0A9010E0D1F1D24
:10512000000F111F000F111F0B571F4E0E94DAF0C6
:10513000F80160837183828393839AC00E94A3B82D
:1051400097C00E9498D894C020930E110E94FAB282
:1051500010920E11882309F48BC0E8E8FFE08491D7
:105160008F010F5F1F4F811103C0EDEBF5E004C00D
:105170000E94ED3EF801F3CF84918F010F5F1F4F26
:10518000882309F475C00E94ED3EF801F5CF89E44B
:105190000E94AB3D8111C9C183E50E94AB3D8111E5
:1051A000C4C11FC281E0809359011092E80F83E5CA
:1051B0000E94F43D882339F00E94683D811158C057
:1051C0000E94C6DE55C083E50E94AB3DF7CF0E942A
:1051D000DF834EC0F0909B110E94033910914C0563
:1051E00080E00E94EB3BFF2029F1E8E8FFE084919A
:1051F0008F010F5F1F4F882321F00E94ED3EF801C1
:10520000F6CF84E50E94ED3E6F2D70E080E090E0E7
:105210004AE00E940E4380E20E94ED3EE5E1F6E0A6
:1052200084918F010F5F1F4F882311F10E94ED3E83
:10523000F801F6CF10926D05812F0E94EB3BE8E854
:10524000FFE084918F010F5F1F4F882321F00E94A0
:10525000ED3EF801F6CF60916D0570E083E096E0D9
:105260000E94A77E8AE00E94ED3E02C00E94DF837A
:105270001092DB020E94C54FDFC10E94FA500E94CB
:10528000D749F6CF0E94033910924D0580E00E9465
:10529000EB3B0E94713A11E01093A20388E50E9453
:1052A000AB3DB82E89E50E94AB3D082F8AE50E94F0
:1052B000AB3DA82EB11004C0011104C01A2505C0D1
:1052C000011102C010E001C01A2D0E94E33E82E5E8
:1052D0000E94F43D882361F00E94783D6B017C01BF
:1052E00020E030E0A9010E9464EC882371F106C03F
:1052F000C12CD12CE0EAEE2EE0E4FE2E111104C008
:10530000B11002C0002391F1C092FD02D092FE02C2
:10531000E092FF02F0920003A70196016091F10F65
:105320007091F20F8091F30F9091F40F0E9464EC52
:1053300087FF0BC019821A821B821C82BE016F5F1D
:105340007F4F8DEF92E00E94FD82111105C0B110D8
:1053500003C0011106C00AC080E00E941B45112352
:10536000C1F381E00E941B45111103C0AA2009F47A
:1053700059C08091A30383708330F1F060E08FE81F
:1053800091E00E94926DE8E8FFE084918F010F5F49
:105390001F4F811103C0E0E8F1E004C00E94ED3E20
:1053A000F801F3CF84918F010F5F1F4F8823D1F154
:1053B0000E94ED3EF801F6CF0E94A43B80E090E011
:1053C000A8ECB2E48093F5029093F602A093F70262
:1053D000B093F8028093F9029093FA02A093FB0233
:1053E000B093FC02E090F10FF090F20F0091F30FF8
:1053F0001091F40FE092FD02F092FE020093FF0282
:105400001093000319821A821B821C82FE013196BE
:105410006F019C01AD01BC01CD010E942C8282E094
:105420000E941B450E94A43B8091A1038093A2038C
:105430000E94583A83E0809333010E94558D18CF23
:1054400011110C94B61D0C94AF1D0E9489460C944A
:10545000D81D0E94443DAB01BC0140936F0850939E
:10546000700860937108709372088EEB97E00E9449
:1054700029BDFECE0E94033988E50E94AB3D8823FA
:1054800031F05E9A8091A3038E7F8093A30389E518
:105490000E94AB3D882331F05E9A8091A3038D7FFB
:1054A0008093A3038AE50E94AB3D882309F4E0CEF4
:1054B000159A8091A3038B7F8093A303D9CEF7FA2B
:1054C000F094F7F8F094D101CD92DD92ED92FC9238
:1054D00013978CCB0E9493E0CBCE0E940339BC2C57
:1054E00060E08C2D0E944D860F3FBFEF1B0759F4E3
:1054F0008C2D0E94F58531E020E0892B09F030E009
:10550000032F122F05C00130110561F401E010E0F6
:105510008B2D0E94F5858017910709F4A9CE0E9472
:105520008946F6CF00E010E0F3CF0E94783D6B0192
:105530007C0120E030E040E85FEB0E943AF387FD19
:105540002EC020E030E040E85FE3C701B6010E94D2
:1055500064EC181624F120911B1130911C1140911C
:105560001D1150911E11C701B6010E9464EC8823E1
:1055700009F47ECEC0921B11D0921C11E0921D1135
:10558000F0921E110E94B74D85E093E00E94F7D281
:105590000E947F440E94A43B0E94558D69CEE9ED94
:1055A000F5E084918F010F5F1F4F882309F460CECF
:1055B0000E94ED3EF801F5CF61E0812F0E944D86FB
:1055C0006E2D812F0E941E86F12CB701812F0E9423
:1055D000795A143009F04CCEF092CD0DE092CC0DFA
:1055E00047CEE8E8FFE084918F010F5F1F4F8111E4
:1055F00003C0E8ECF5E004C00E94ED3EF801F3CFF3
:1056000084918F010F5F1F4F882321F00E94ED3E90
:10561000F801F6CF60911B1170911C1180911D1142
:1056200090911E1146E00E94D9438AE00E94ED3E0F
:105630008AE00E94ED3E1CCEC559DF4F0FB6F894AC
:10564000DEBF0FBECDBFDF91CF911F910F91FF90B5
:10565000EF90DF90CF90BF90AF909F908F907F9012
:105660006F905F904F903F902F9008952F923F92B0
:105670004F925F926F927F928F929F92AF92BF9262
:10568000CF92DF92EF92FF920F931F93CF93DF930E
:10569000CDB7DEB7C956D1090FB6F894DEBF0FBE3D
:1056A000CDBFE0910410F0910510EF2B11F00C9498
:1056B0004933DEAECDAEE9AE79016A015B01FC0192
:1056C00020917010309171104091721050917310B0
:1056D00060817181828193810E94CAEC0E9447F3AC
:1056E000A1966CAF7DAF8EAF9FAFA1972091741044
:1056F000309175104091761050917710D5016D91D1
:105700007D918D919C910E94CAEC0E9447F3A596D1
:105710006CAF7DAF8EAF9FAFA59720917810309181
:10572000791040917A1050917B10F601608171815F
:10573000828193810E94CAEC0E9447F3A9966CAFC4
:105740007DAF8EAF9FAFA99720917C1030917D10D7
:1057500040917E1050917F10D7016D917D918D9178
:105760009C910E94CAEC0E9447F32B966CAF7DAFD0
:105770008EAF9FAF2B9780915E0283FF0EC02B965A
:105780004CAC5DAC6EAC7FAC2B974092F005509268
:10579000F1056092F2057092F305D8013C901196E4
:1057A0004C9011974DA612965C90129759AA139699
:1057B0002C908091CE059091CF05891B8F708F30F2
:1057C00019F40E948946F5CF6090CE05AA966FAE77
:1057D000AA978091CE05082F10E01CA30BA38091FF
:1057E000E4059091E505A091E605B091E705A19645
:1057F0008CAC9DACAEACBFACA197881A990AAA0A32
:10580000BB0A8091E8059091E905A091EA05B09165
:10581000EB05A5964CAC5DAC6EAC7FACA597481A79
:10582000590A6A0A7B0A4DA25EA26FA278A68091ED
:10583000EC059091ED05A091EE05B091EF05A996CC
:105840004CAC5DAC6EAC7FACA997481A590A6A0A99
:105850007B0A49A65AA66BA67CA68091F00590917A
:10586000F105A091F205B091F3052B964CAC5DAC1F
:105870006EAC7FAC2B97481A590A6A0A7B0A09F466
:105880009DC080915D0281113BC0609111107091AB
:10589000121080911310909114100E9446F22091E2
:1058A0000001309101016217730754F52B964CAC3F
:1058B0005DAC6EAC7FAC2B974092F0055092F10539
:1058C0006092F2057092F305E8E8FFE084918F01A1
:1058D0000F5F1F4F811103C0E6E4F6E004C00E9491
:1058E000ED3EF801F3CF84918F010F5F1F4F8823A6
:1058F00021F00E94ED3EF801F6CF412C512C3201EF
:1059000039AD24E0329F80011124045C1E4FC30195
:10591000B2010E946BECD8012D913D914D915C91AB
:105920000E94CAEC6B017C0120E030E0A9010E94DA
:105930003AF387FF04C0F7FAF094F7F8F094609117
:105940007C1070917D1080917E1090917F100E944C
:1059500046F29B01AC01A8ECB0E00E94BFF00E94AF
:105960006BECA70196010E9464EC87FF2AC02B967E
:105970004CAC5DAC6EAC7FAC2B974092F005509276
:10598000F1056092F2057092F305E8E8FFE084917A
:105990008F010F5F1F4F811103C0E7E2F6E004C0E3
:1059A0000E94ED3EF801F3CF84918F010F5F1F4FEE
:1059B000882321F00E94ED3EF801F6CF412C512CB6
:1059C0003201D501C4018827B7FD83959927AA27FD
:1059D000BB27182F2DA13EA14FA158A557FD12603E
:1059E00089A59AA5ABA5BCA5B7FD146077FC186086
:1059F00009ADA4E00A9FC00111249C01245C3E4F24
:105A00007901C301B2010E946BECD7012D913D9148
:105A10004D915C910E94CAEC6B017C0120E030E06A
:105A2000A9010E943AF387FF04C0C701B60190584C
:105A300002C0C701B60120E030E040E05FE30E9411
:105A4000DAF00E944DF26DAB7EAB8FAB98AF8DE478
:105A50004BA05CA0849DF001859DF00D1124EE55B6
:105A6000F74F108216ABB501A401B7FE07C044275B
:105A70005527BA01481959096A097B098DE46BA0B9
:105A80007CA0869DF001879DF00D1124EE55F74F07
:105A9000458B568B678B708F8DA19EA1AFA1B8A54A
:105AA000B7FF07C0B095A095909581959F4FAF4FD8
:105AB000BF4F2DE40BA11CA1209FF001219FF00DF1
:105AC0001124EE55F74F818F928FA38FB48F09A5C4
:105AD0001AA52BA53CA537FF07C03095209510953A
